:020000040800F2
:1000000000900020E90400083905000839050008BF
:1000100000000000000000000000000000000000E0
:10002000000000000000000000000000C9150008EA
:1000300000000000000000003116000875170008DD
:1000400039050008000000003905000839050008DE
:100050003905000839050008390500083905000888
:1000600000000000390500083905000839050008BE
:1000700039050008390500083905000800000000AE
:100080003905000839050008390500083905000858
:100090003905000839050008390500083905000848
:1000A0003905000839050008390500083905000838
:0800B0003905000839050008BC
:1000C0000448054B10B5834203D0044B002B00D0ED
:1000D000984710BD10000020100000200000000014
:1000E00006480749091A8B10C90FC91810B54910DD
:1000F00003D0044B002B00D0984710BD1000002007
:10010000100000200000000010B5074C2378002BE1
:1001100009D1FFF7D5FF054B002B02D0044800E0C2
:1001200000BF0123237010BD10000020000000005C
:10013000EC1D0008054B10B5002B03D00449054801
:1001400000E000BFFFF7CCFF10BDC046000000007C
:1001500014000020EC1D0008002243088B4274D3D9
:1001600003098B425FD3030A8B4244D3030B8B42B8
:1001700028D3030C8B420DD3FF22090212BA030CC1
:100180008B4202D31212090265D0030B8B4219D3A2
:1001900000E0090AC30B8B4201D3CB03C01A5241C2
:1001A000830B8B4201D38B03C01A5241430B8B420A
:1001B00001D34B03C01A5241030B8B4201D30B03F3
:1001C000C01A5241C30A8B4201D3CB02C01A52411A
:1001D000830A8B4201D38B02C01A5241430A8B42DD
:1001E00001D34B02C01A5241030A8B4201D30B02C6
:1001F000C01A5241CDD2C3098B4201D3CB01C01AE0
:10020000524183098B4201D38B01C01A52414309E9
:100210008B4201D34B01C01A524103098B4201D3D7
:100220000B01C01A5241C3088B4201D3CB00C01A44
:10023000524183088B4201D38B00C01A52414308BC
:100240008B4201D34B00C01A5241411A00D20146E1
:10025000524110467047FFE701B5002000F006F854
:1002600002BDC0460029F7D076E770477047C04608
:10027000F0B50500830749D0541E002A45D003007D
:100280000326CAB202E00135013C3ED301332A7095
:100290003342F8D1032C30D9FF220A401502AD18A1
:1002A0002A04AD180F2C34D92700103F3F093E0116
:1002B000B4461E001A0010366644156055609560FD
:1002C000D56010329642F8D101373F01DB190F2774
:1002D0000C22274022403C00002A0ED03E1FB608C8
:1002E000B400A4461A001C1D644420C2A242FCD1E2
:1002F00003240136B6009B193C40002C05D0C9B23E
:100300001C19197001339C42FBD1F0BD030014008D
:10031000C0E72700E2E7C046F0B505000F2A31D953
:1003200003273E000D430C0003002E402F4234D122
:100330001500103D2D09AC462F013F1865685D6022
:10034000A5689D60E568DD60256810341D601D00AE
:100350001033BD42F2D165460F230C2401352D0127
:1003600049191340451914421AD0043B9B08013324
:100370009B008C59AC5104369E42FAD10323AD192F
:1003800089191A40561E002A06D00023CC5C1A0098
:10039000EC5401339642F9D1F0BD0500561EF4E746
:1003A0001A00EFE770B50D4B0D4D5E1BB610AB425A
:1003B00005D0002408CD01349847A642FAD801F0B0
:1003C00015FD084B084D5E1BB610AB4205D000244E
:1003D00008CD01349847A642FAD870BD4C1E0008DB
:1003E0004C1E0008541E00084C1E000810B50100E9
:1003F00000230022002000F015F810BD70B5074C56
:10040000074D641BA41005D0013CA300EB5898478E
:10041000002CF9D101F0F0FC70BDC046581E000858
:10042000541E0008F0B5C6461A4C00B52568002DCC
:100430002AD06C681F2C2ADC002808D10020631CFD
:100440000234A4006B60615180BCB846F0BD8827BF
:10045000A600AE19F2510137FF37BC460122AC4469
:100460006746A2403F68904617436246176084275C
:100470007F00F3510228E1D1280042468D30FF3041
:10048000036813430360D9E7034D2560D1E70120DA
:100490004042D9E72C0000203000002080B500AF9A
:1004A000A0202021C00500F0D3F9642000F0EEFC6C
:1004B000F6E7000080B582B002AF00F0A1F800F0CE
:1004C0003DF8802206490748002301930133009339
:1004D0000023520000F060FB00F08EFBFEE7C046F8
:1004E000041E00089D0400080D48854600F05AF8D7
:1004F0000C480D490D4A002302E0D458C45004337F
:10050000C4188C42F9D30A4A0A4C002301E0136054
:100510000432A242FBD3FFF745FFFFF7CBFFFEE714
:10052000009000200000002010000020581E00084D
:1005300010000020EC1A0020FEE7000070B588B023
:100540001422002103A8FFF793FE154B596B0422D8
:1005500011435963596B0A400092009A5A6B202547
:100560002A435A635A6B2A400192019A5A6B01241A
:1005700022435A635B6B23400293029BA026F6053D
:1005800000222021300000F05DF90395049400233F
:100590000593069303A9300000F09AF808B070BDE7
:1005A000001002407047704710B50400114B1978D5
:1005B000002901D1012010BDFA208000FFF7CCFDF9
:1005C00001000D4B1868FFF7C7FD00F07DF800280B
:1005D0000DD1032C01D90120EDE7013000222100CB
:1005E000404200F06DF8054B1C600020E3E701205D
:1005F000E1E7C046040000200000002008000020C1
:1006000010B5084A116880235B000B431360032078
:10061000FFF7CAFF041E02D00124200010BDFFF71F
:10062000C2FFFAE70020024070B5002811DB830802
:10063000134DC0339B005C5903221040C000FC32B4
:1006400016008640B44389010A40824022435A5131
:1006500070BD0F230340083B9B0806339B00094AEB
:10066000944663445C6803221040C000FC321500CD
:100670008540AC4389010A40824022435A60E7E743
:1006800000E100E000ED00E0013880235B049842C7
:100690000FD2094A50600948036A1B021B0AC02195
:1006A00009060B43036200239360073313600020A5
:1006B00070470120FCE7C04610E000E000ED00E0DC
:1006C00010B5FFF7B1FF10BD10B5FFF7DDFF10BD8E
:1006D000F0B5002359E086685F000324BC40A643C0
:1006E000CC68BC4034438460446894434E68360907
:1006F000012232409A402243426056E0DE0808362A
:10070000B600375805321A4092000F249440A74390
:100710000C69944022003A43325059E0032600E02D
:100720000026A64034003C43424E183292009451B9
:100730003768EA433E00AE434C68E40201D53E0010
:100740002E433C4C266067683E0016404C68A4026D
:1007500001D53E002E43374C66608426A7593E00E3
:1007600016404C68A40301D53E002E43314C84272B
:10077000E6518026A65932404C68E40301D52A0090
:1007800032432C4D80242A5101330C682200DA4078
:100790004ED001229A40250015401442F4D04E68F4
:1007A00003243440013C012C95D94C68032222409B
:1007B000032A08D0C4685E000322B24094438A68CA
:1007C000B2402243C2604C6803222240022A95D0E4
:1007D00004685E0003221700B740BC434F683A40EC
:1007E000B240224302604C68C02292021442CBD035
:1007F0009A0814001834A4000E4EA75903241C4074
:10080000E4000F26A640B743A026F605B04287D0E5
:10081000094EB04208D0094EB04207D0084EB0424F
:1008200000D17BE705267CE701267AE7022678E7F8
:10083000F0BDC046001802400004005000080050FF
:10084000000C0050002A01D0816170478162FCE7F2
:10085000426913000B401B0491430B4383617047B3
:10086000084B1B681B68002B04D1074B0122524226
:100870001A607047034B1B68DB68DB685A68024BE1
:100880001A60F6E730020020C8010020F0B5DE460D
:1008900057464646C0B582460F0014009B46089E48
:1008A0000A9D286B9200A521FFF7E2FC2B6B204AE2
:1008B00094466444A4001B19072293439846002FD2
:1008C00032D000240F2C07D83A5D2B1934331A701C
:1008D000002A01D00134F5E743230022EA54372EE1
:1008E00000D93726EE62EE6400242C65281D00F046
:1008F00072FF2800183000F06EFF2D6138239B1B1B
:10090000AB616D626C655823EC545A4651464046C3
:1009100000F048FE2860099B002B00D01D60E0BC61
:10092000BB46B246A846F0BD34230022EA54D6E7BF
:10093000FFFFFF3F70B5002407E0A3001B199800DC
:100940000E4BC01800F03CFF0134372CF5D90C4D8C
:10095000280000F035FF0B4C200000F031FF0A4862
:1009600000F02EFF094800F02BFF094800F028FF97
:10097000084B1D60084B1C6070BDC0465C02002027
:100980004802002034020020180200200402002047
:10099000EC010020300200202C02002010B50400E1
:1009A00000F020FE204A1368013313601F4B1B68C0
:1009B000002B0CD01E4B1B68002B0DD11B4B1B6852
:1009C000DA6AE36A9A4207D8184B1C6004E0174BB6
:1009D0001C601368012B20D0164A13680133136082
:1009E0006364E26A144B1B689A4201D9124B1A6085
:1009F000211D93009B189B001048181800F0EEFE74
:100A000000F0FCFD0A4B1B68002B05D0074B1B6850
:100A1000DA6AE36A9A4203D310BDFFF78BFFDBE784
:100A200000F0D4FDF8E7C046E8010020BC06002035
:100A3000DC010020CC010020E00100205C0200204D
:100A400010B504005923C35C002B05D0012B0AD03C
:100A5000022B07D072B6FEE7006B00F085FE200087
:100A600000F082FE10BD00F07FFEFBE710B514E041
:100A700000F0B8FD0B4BDB68DC68201D00F0D0FEF9
:100A8000094A1368013B1360084A1368013B13606D
:100A900000F0B4FD2000FFF7D3FF044B1B68002BD0
:100AA000E6D110BD04020020E80100200002002071
:100AB00010B5FFF7DBFF034B1B68012BF9D900F0E2
:100AC00085FDF6E75C02002070B504000D00174BB1
:100AD0001E68174B1868043000F0A2FE631C0DD08E
:100AE0003419134B1B685C60A64210D9114B18686F
:100AF0000F4B1968043100F07CFE70BD002DEFD063
:100B00000B4B196804310C4800F068FEF5E70B4BFD
:100B10001868074B1968043100F06BFE084B1B681E
:100B2000A342EAD9064B1C60E7E7C046E401002077
:100B3000BC0600202C020020EC0100203002002026
:100B4000C801002070B586B00B9C002C09D00C9C0D
:100B5000002C08D05C240494049C5C2C05D072B654
:100B6000FEE772B6FEE772B6FEE7049C0C9C0B9D96
:100B70002563592402250C9E3555002403940296C2
:100B800005AC01940A9C0094FFF780FE0C98FFF7D7
:100B900005FF059806B070BDF0B587B004900591CB
:100BA00016001F00900000F0AFFD041E1FD05C2057
:100BB00000F0AAFD051E14D00463002359228354BB
:100BC000039302900D9B01930C9B00933B0032001A
:100BD00005990498FFF75AFE2800FFF7DFFE012071
:100BE00007E0200000F0C0FD0120404201E00120AC
:100BF000404207B0F0BD000010B588B00024059455
:100C0000069407AA06A905A800F0C2FD079A134991
:100C10001348059B0293069B019300940023FFF762
:100C200091FF104B1860002811D000F0FDFA012848
:100C30000ED172B60C4B012252421A600B4B02329B
:100C40001A600B4B00221A6000F040FD02E0002009
:100C5000013001D008B010BD72B6FEE70C1E0008CE
:100C6000B10A0008C4010020C8010020DC010020F6
:100C7000E4010020024A1368013313607047C04644
:100C8000C0010020014B18687047C046E4010020F5
:100C9000F8B5394B1B68002B66D1384B1D68013500
:100CA0001D60002D12D1364B1B681B68002B01D034
:100CB00072B6FEE7324A1168324B1868106019604C
:100CC000314A136801331360FFF7CAFD2F4B1B68CD
:100CD000AB423FD900272E4B1B68D96A2D4A8B00A7
:100CE0005B1899008B58012B00D901272A4B1B68F0
:100CF000002B3ED001273CE00127214B1B681B68DD
:100D0000002B29D01E4B1B68DB68DC6863689D42A2
:100D100027D3261D300000F083FDA36A002B03D0EB
:100D20002000183000F07CFDE26A1C4B1B689A42E0
:100D300001D91A4B1A6093009B189800154BC018E4
:100D4000310000F04BFDE26A114B1B68DB6A9A42EE
:100D5000D2D2D2E70027D0E70C4B012252421A60D0
:100D6000B9E70A4A1360B6E70D4A13680133136006
:100D700000273800F8BDC046C0010020E401002073
:100D8000300200202C020020D0010020C8010020E9
:100D9000BC0600205C020020D4010020E0010020FD
:100DA000D801002070B5314B1B68002B01D172B601
:100DB000FEE700F017FC2D4B1A68013A1A601B6819
:100DC000002B4DD12A4B1B68002B01D1002448E099
:100DD0000024284B1B68002B23D0264BDB68DC68E3
:100DE0002000183000F01CFD251D280000F018FD23
:100DF000E36A214A1268934201D91F4A136098009E
:100E0000C01880001D4BC018290000F0E7FCE26A02
:100E10001B4B1B68DB6A9A42DBD31A4B01221A6018
:100E2000D7E7002C01D0FFF71BFD174B1C68002CE7
:100E30000AD1144B1C68002C13D000F0C7FB01240E
:100E40000FE0013C002C07D0FFF722FF0028F8D06C
:100E50000C4B01221A60F4E70B4B00221A60E8E702
:100E6000002400F0CBFB200070BDC046C001002074
:100E7000E801002018020020E00100205C020020B0
:100E8000BC060020D4010020D801002010B5041EAB
:100E90000FD0094B1B68002B01D072B6FEE7FFF79D
:100EA000E9FE00212000FFF70FFEFFF77BFF00287F
:100EB00001D100F08BFB10BDC001002010B51E4B0E
:100EC0001B68002B03D01D4B01221A6010BD1B4B69
:100ED00000221A601A4B1B681A499A00D218900017
:100EE0004258002A05D1002B01D0013BF4E772B62D
:100EF000FEE708009900CC18A200821854686468C4
:100F00005460C9188A000832121894420BD00D4A56
:100F10009900C918880012185268D1680A4A1160ED
:100F2000074A1360D2E7646802009900C918880074
:100F300012185460EBE7C046C0010020D401002025
:100F4000E00100205C020020BC06002010B50C006F
:100F5000002809D0054B1968183100F04AFC01211E
:100F60002000FFF7B1FD10BD72B6FEE7BC06002001
:100F700070B50D00140000280DD0084B1968183109
:100F800000F02CFC002C01D001256D42210028002E
:100F9000FFF79AFD70BD72B6FEE7C046BC060020A2
:100FA00070B5C368DC68002C26D0250018352800F1
:100FB00000F036FC154B1B68002B1FD1251D2800A7
:100FC00000F02EFCE36A124A1268934201D9104ADB
:100FD00013609800C01880000E4BC018290000F064
:100FE000FDFBE26A0C4B1B68DB6A9A420BD90B4B88
:100FF00001221A60012070BD72B6FEE70848290080
:1010000000F0ECFBEDE70020F5E7C046C001002052
:10101000E00100205C020020BC060020D40100207A
:1010200018020020034B1B680360034B1B684360DE
:101030007047C046D0010020E4010020F8B504004C
:101040000D00002817D0002917D000F0CBFA134B61
:1010500019686368C81A2A68561C18D02768104E89
:101060003668B74201D08B4216D9824207D8002396
:101070002B6001240CE072B6FEE772B6FEE75B1A45
:101080009B182B602000FFF7CDFF002400E0002418
:1010900000F0B4FA2000F8BD0124F9E7E4010020D3
:1010A000D0010020014B01221A607047D4010020BA
:1010B000064B1B68002B07D0054B1B68002B01D08B
:1010C000002002E0022000E001207047DC01002047
:1010D000C001002070B5041E2DD0194B1B6883423F
:1010E00001D072B6FEE7036D002B01D172B6FEE7A8
:1010F000013B0365C16AC26C91421ED0002B01D036
:10110000002019E0051D280000F08AFBE36CE36273
:101110003822D21AA2610B4A1268934201D9094AB5
:1011200013609800C0188000074BC018290000F019
:1011300055FB012000E0002070BD0020FCE7C04608
:10114000BC060020E00100205C020020074B1A686A
:101150001368002B06D101330360002B04D1D36840
:10116000186870470023F7E70020FAE7C00700205F
:1011700010B54160006191420CD8D21A83699A423D
:1011800001D3012010BD011D094B186800F031FB8F
:101190000020F7E79A4201D2994206D2011D054B81
:1011A000186800F026FB0020ECE70120EAE7C046C3
:1011B000BC070020C007002030B583B000F012FA51
:1011C000114B1B68002B03D000F018FA03B030BDA0
:1011D0000E4D280000F0F4FA0D4C200000F0F0FA5B
:1011E0000C4B1D600C4B1C600C4B0D4A00210091F8
:1011F00010310A2000F016FC034B18600028E3D0E1
:10120000084900F0ADFDDFE7B8070020D80700204F
:10121000C4070020C0070020BC070020C006002033
:1012200010070020141E000800B589B0FFF7C4FFA6
:10123000104B1B68002B1AD000230593069307AAB6
:1012400006A905A800F0B0FA079A0B490B48059BC0
:101250000293069B0193022300930023FFF772FC85
:10126000074B1860002802D0012009B000BD72B6FB
:10127000FEE7C046B80700201C1E00083515000810
:10128000B407002030B585B01C00002814D0144BE2
:101290001D68002D22D0009101920290052915DCD5
:1012A000FFF706FF022809D00D4B18680023002223
:1012B000694600F0E1FB0FE072B6FEE7084B1868E4
:1012C0000023089A694600F0D7FB05E000232200BE
:1012D0006946280000F062FC05B030BD0020FBE745
:1012E000B807002070B582B0184B1B681A68002A36
:1012F00024D0DB681E68DC68251D280000F090FA09
:10130000236A200098472823E35C5B07ECD5A36998
:101310009B199E4207D2636024610C4B1868290018
:1013200000F067FAE0E7002300933200002120007C
:10133000FFF7A8FF0028D7D172B6FEE7034A044999
:10134000086810600B6002B070BDC046C007002086
:10135000BC07002070B50500FFF794FC0400074BA4
:101360001B68834205D800232B60044B1C602000BF
:1013700070BDFFF7B7FF01232B60F6E7B007002031
:1013800070B582B005000E00134B1B68DB68DC688B
:10139000201D00F045FA2823E35C5A0708D40122F7
:1013A00093432732A354236A2000984702B070BDAC
:1013B000A16949192B0032002000FFF7D9FE00284F
:1013C000F1D0002300932A0000212000FFF75AFFEC
:1013D0000028E8D172B6FEE7C007002070B582B0E1
:1013E00004000D00FFF746FC01A8FFF7B3FF06005D
:1013F000019B002B22D1002D14D1A0420BD2A11BA6
:10140000104B18682A0000F0BDFCFFF7CBFC002849
:1014100011D002B070BDFFF7C5FC31002000FFF70E
:10142000AFFFF6E7084A12681268002A01D10125C9
:10143000E5E71D00E3E700F0C9F8EAE7FFF7B2FCD3
:10144000E7E7C046B8070020BC07002010B588B009
:1014500002E0049B002B0FDA344B1868002204A929
:1014600000F0F2FB00285FD0049B002BF1DA059B13
:10147000069807999847ECE7069C6369002B02D011
:10148000201D00F0CDF903A8FFF764FF0499092996
:10149000E2D88900264B59588F462822A35C0121A7
:1014A0000B43A354059BA169591802002000FFF7C4
:1014B0005FFE0028D0D0236A200098472823E35CF1
:1014C0005B07C9D5059AA369D218002300930021B0
:1014D0002000FFF7D7FE0028BED172B6FEE7282213
:1014E000A35C01218B43A354B6E72822A35C01210E
:1014F0000B43A3540599A161002906D009180300E4
:1015000002002000FFF734FEA6E772B6FEE72823AC
:10151000E35C9A0704D5012293432732A3549BE747
:10152000200000F021F997E708B010BDB8070020AF
:10153000241E000800B583B001A8FFF707FE01993B
:10154000FFF74CFFFFF782FFF6E7000082B00023B1
:101550000193064B1B68013301D072B6FEE772B6E9
:10156000019B002BFCD002B07047C0460C0000204D
:101570000B4A13681868203080F30988022080F332
:101580001488BFF36F8F3FBCAE4608BC04BC62B684
:101590001847C046C046C046C046C046C046C046C2
:1015A000BC06002010B5031F802464041C60043BAB
:1015B0001960044B01000C390B600300203B1A60DA
:1015C000403810BD4D15000870470000044B8022C4
:1015D00052051A60BFF34F8FBFF36F8F7047C0463D
:1015E00004ED00E072B6044A136801331360BFF3E0
:1015F0004F8FBFF36F8F70470C000020064B1B68A6
:10160000002B01D172B6FEE7013B034A1360002BA9
:1016100000D162B67047C0460C000020EFF3108086
:1016200072B6704780F31088704700000000000019
:10163000EFF309800E4B1A6820381060F0C0444662
:101640004D4656465F46F0C008B572B6FFF736FC09
:1016500062B60CBC116808681030F0C8A046A946F4
:10166000B246BB4680F309882038F0C81847C04608
:10167000BC06002010B5FFF7D1FF0400FFF708FB00
:10168000002803D0034B802252051A602000FFF788
:10169000C9FF10BD04ED00E010B5084C0023236025
:1016A000074A1360074B1868FA218900FEF754FDBA
:1016B0000138054B18600723236010BD10E000E0DF
:1016C00018E000E00000002014E000E010B50C4B32
:1016D0001968FF2212040A431A601968FF221206D1
:1016E0000A431A60FFF7D8FF064B00221A60FFF783
:1016F0003FFFFFF7E3FBFFF729FF002010BDC046C7
:1017000020ED00E00C00002070B50400430702D07B
:1017100007239C430834FFF7ADFA0F4B1B68002BDF
:1017200010D00E4B1B681C190D4A944210D8A342CE
:1017300010D2094A1568ED18084B1C60FFF732FB00
:10174000280070BD074B07229343034A1360E8E764
:101750000025F3E70025F1E7EC070020F007002063
:10176000F70B0000FC070020002801D072B6FEE74E
:101770007047000010B5054B1B68FFF799FC012866
:1017800000D110BDFFF776FFFBE7C04610E000E098
:10179000034B0360034B0B60802313607047C0460C
:1017A000501A002050180020034B0360034B0B60BD
:1017B00080235B0013607047F4170020F4130020AF
:1017C000030008334360012252428260C360036118
:1017D00000230360704700230361704743684B6038
:1017E0009A688A60516099600861036801330360F8
:1017F000704730B50D686B1C10D0030008331C0017
:101800005B681A68AA42FAD963684B6099608C6079
:101810006160086103680133036030BD0469F3E768
:101820000369416882688A60416851605A688242EF
:1018300006D0002202611A68013A1A6018687047DF
:1018400082685A60F5E710B50400FFF7CBFEA26B83
:10185000E36B9A4204D00024FFF7D0FE200010BDB5
:101860000124F9E710B50400FFF7BCFEA36B002BC1
:1018700004D10124FFF7C2FE200010BD0024F9E7C7
:1018800070B504001500866B026C002A0CD1036849
:10189000002B03D000200136A66370BD8068FFF7DF
:1018A00019FC0023A360F6E7002D0DD14068FEF778
:1018B00033FD6368226C9B186360A26893421AD35D
:1018C000236863602800E6E7C068FEF725FDE3684B
:1018D000226C51429B1AE3602268934202D2A368B1
:1018E0005B18E360022D01D00020D4E7002E04D065
:1018F000013E0020CFE72800CDE70020CBE710B560
:10190000030008001A6C002A0AD0DC68A418DC6006
:1019100099688C4201D31968D960D968FEF7FCFC3C
:1019200010BD70B50500FFF75DFE4523EC5C64B2A9
:1019300001E0013C64B2002C0BDD6B6A002B08D087
:1019400028002430FFF72CFB0028F2D0FFF7AAFB79
:10195000EFE74523FF22EA54FFF750FEFFF742FE70
:101960004423EC5C64B201E0013C64B2002C0BDD6A
:101970002B69002B08D028001030FFF711FB00283E
:10198000F2D0FFF78FFBEFE74423FF22EA54FFF783
:1019900035FE70BD70B504000D0000281DD0FFF7A6
:1019A00021FE2268E36B206C010059435118A160AD
:1019B0000021A1636260013B4343D218E260FF2330
:1019C0004422A3540132A354002D11D12369002BCA
:1019D00005D1FFF713FE012070BD72B6FEE72000AF
:1019E0001030FFF7DDFA0028F3D0FFF7EFFDF0E746
:1019F00020001030FFF7E4FE20002430FFF7E0FE67
:101A0000E7E770B51D00049C002909D12460E0635C
:101A1000216401212000FFF7BDFF4C23E55470BD78
:101A20002260F4E770B584B01D0008AC237800286C
:101A300001D172B6FEE7002D05D0002A05D000299D
:101A400003D172B6FEE772B6FEE7002A06D0502434
:101A50000394039C502C05D072B6FEE70029F6D003
:101A600072B6FEE7039C462401262E550095FFF72B
:101A7000C8FF280004B070BDF0B585B004000F00A9
:101A800001921D00002808D0002908D0022D0BD19A
:101A9000E36B012B08D072B6FEE772B6FEE7036C6B
:101AA000002BF3D072B6FEE7FFF702FB061E04D14F
:101AB000019B002B32D072B6FEE700262EE02A00F2
:101AC00039002000FFF7DCFE636A002B06D10028F6
:101AD0000DD1FFF793FD012005B0F0BD20002430AB
:101AE000FFF75EFA0028F4D0FFF770FDF1E7FFF78B
:101AF0006DFDEEE7FFF782FD0020EDE702A8FFF79E
:101B000091FA013617E00022E2541FE00022E2546D
:101B100021E02000FFF705FFFFF744F9FFF762FD22
:101B2000A26BE36B9A42CAD3022DC8D0019B002B53
:101B3000E0D0002EE2D0FFF761FDFFF79BF8FFF742
:101B400051FD4423E25C52B20132DCD04523E25C19
:101B500052B20132DAD0FFF751FD01A902A8FFF716
:101B60006DFA002813D12000FFF76DFE0028D0D0B9
:101B7000019920001030FFF7E9F92000FFF7D1FEAE
:101B8000FFF710F90028C9D1FFF720FDC6E72000B4
:101B9000FFF7C7FEFFF706F900209DE7F0B5C64640
:101BA00000B582B004000F0001921D00002808D08B
:101BB000002908D0022D0BD1E36B012B08D072B69F
:101BC000FEE772B6FEE7036C002BF3D072B6FEE7B9
:101BD000FFF724FD0600A26BE36B9A420AD3022DA5
:101BE00008D000243000FFF71DFD200002B080BCAB
:101BF000B846F0BD4523E35C5BB29846A36B2A0070
:101C000039002000FFF73CFE4346013306D043462F
:101C100001335BB24522A3540124E3E7636A002B3E
:101C200001D10124DEE720002430FFF7B9F90028B4
:101C300006D0019A002A05D0012313600124D1E7C0
:101C40000124CFE70124CDE7F0B585B004000E00F4
:101C5000019200280AD000290AD0FFF729FA051EB0
:101C60000BD1019B002B42D072B6FEE772B6FEE7A5
:101C7000036C002BF1D072B6FEE7002537E031008F
:101C80002000FFF73CFE013FA7632369002B04D12E
:101C9000FFF7B4FC012005B0F0BD20001030FFF7C5
:101CA0007FF90028F4D0FFF791FCF1E7FFF7A6FCDD
:101CB0000020F0E702A8FFF7B5F9013521E0442341
:101CC0000022E25428E045230022E25429E02000CB
:101CD000FFF727FEFFF766F809E02000FFF721FE77
:101CE000FFF760F82000FFF7BDFD002835D1FFF7B2
:101CF00079FCA76B002FC2D1019B002BD6D0002D01
:101D0000D8D0FFF77BFCFEF7B5FFFFF76BFC442351
:101D1000E35C5BB20133D2D04523E35C5BB20133B9
:101D2000D1D0FFF76BFC01A902A8FFF787F90028C3
:101D3000D3D12000FFF796FD0028C8D001992000DC
:101D40002430FFF703F92000FFF7EBFDFFF72AF837
:101D50000028CCD1FFF73AFCC9E700209BE7000040
:101D600010B50023072B0AD8054ADC00A258002A28
:101D700001D00133F6E7024AA1501219506010BD9C
:101D8000AC1A002070B504000D001600FFF72AFC05
:101D90004423E35C5BB201330DD04523E35C5BB2CB
:101DA00001330CD0FFF72AFCA36B002B0BD02000D3
:101DB000FFF7B7FD70BD44230022E254EDE7452351
:101DC0000022E254EEE72000243032002900FFF721
:101DD000CFF8ECE7034B10B5002B02D00248FEF71A
:101DE00005FB10BD00000000FD030008F8B5C0466B
:101DF000F8BC08BC9E467047F8B5C046F8BC08BCA5
:041E00009E46704743
:101E0400626C696E6B00000049444C4500000000A0
:101E1400546D725100000000546D722053766300BB
:101E24009A1400089A1400089A140008DE14000892
:101E3400EA1400080E1500089A1400089A14000801
:081E4400DE140008EA14000896
:081E4C00D51D00083501000856
:041E54000901000878
:101E58000024F4000100000004000000AAAAAAAAB5
:04000005080004E902
:00000001FF
